:100000000C942A000C9447000C9447000C94470071
:100010000C9447000C9447000C9447000C94690022
:100020000C9447000C9447000C9447000C94470034
:100030000C9447000C9447000C9447000C94470024
:100040000C9447000C9447000C9447000C94470014
:100050000C94470011241FBECFE5D8E0DEBFCDBF12
:1000600010E0A0E6B0E0E2E0F1E002C005900D9201
:10007000A036B107D9F710E0A0E6B0E001C01D92AC
:10008000A036B107E1F70E9479000C9480000C942F
:100090000000CF93DF93CDB7DEB7AEE4B0E0EEE47F
:1000A000F0E080818B608C93ECE4F0E011821082B0
:1000B000EAE4F0E084EC99E091838083A9E5B0E084
:1000C000E9E5F0E0808180618C937894DF91CF91B5
:1000D00008951F920F920FB60F921124CF93DF93C2
:1000E000CDB7DEB7DF91CF910F900FBE0F901F906D
:1000F0001895CF93DF93CDB7DEB70E944900FFCFAD
:02010000FFCF2F
:00000001FF
