:100000000C9446000C9465000C9465000C946500FB
:100010000C9465000C9465000C9465000C946500CC
:100020000C9465000C9465000C9465000C946500BC
:100030000C9487000C9465000C9465000C9465008A
:100040000C9465000C9465000C9465000C9465009C
:100050000C9465000C9465000C9465000C9465008C
:100060000C9465000C9465000C9465000C9465007C
:100070000C9465000C9465000C9465000C9465006C
:100080000C9465000C9465000C94650011241FBE4F
:10009000CFEFD0E1DEBFCDBF11E0A0E0B1E0EAE8F4
:1000A000F1E000E00BBF02C007900D92A030B10755
:1000B000D9F711E0A0E0B1E001C01D92A030B10776
:1000C000E1F70E94AB000C94C4000C940000CF93A5
:1000D000DF93CDB7DEB7AEE4B0E0EEE4F0E08081D0
:1000E0008B608C93ECE4F0E011821082EAE4F0E0A3
:1000F00087EA91E691838083A7E5B0E0E7E5F0E049
:10010000808180618C937894DF91CF9108951F92C4
:100110000F920FB60F9211248F939F93AF93BF93BB
:10012000EF93FF93CF93DF93CDB7DEB7A5E3B0E0B6
:10013000E5E3F0E0908181E089278C93DF91CF9116
:10014000FF91EF91BF91AF919F918F910F900FBE53
:100150000F901F901895CF93DF93CDB7DEB7A4E330
:10016000B0E0E4E3F0E0808181608C93EAE3F0E0CA
:100170008FEF80830E946700ABE3B0E0EBE3F0E039
:0A018000808180958C93F8CFFFCFAB
:00000001FF
